:03000000020003F8
:0C000300787FE4F6D8FD75817202004A97
:10008F00206808601020FFF827100800C020FFFA32
:10009F0024C0000000307FFEA000000000207FFA87
:1000AF00A420400000307FF836000000003778F8B9
:1000BF00B6010000207FF8B40201000000193E7C59
:1000CF00540300000001021C3C7B580000193E7CC9
:1000DF0054030000207FF8B40201000000237CF8D5
:0B00EF00B60100000001022478FFB001
:1000FB0012019BE4F570E57025712408F8E6FD7C90
:10010B0000AF701201630570E570C3940840E705FA
:10011B0072E572D3941440DBE4F57274082571F523
:0B012B0071D3946040CDE4F57180C8F2
:10018500EF1FAC0670011E4C600B007D027CC7DCC6
:05019500FEDDFC80EB23
:01019A002242
:05019B00C2B6C2B5224E
:02013600AD0713
:10013800E4FB74807E00A803088006CEA2E713CEF5
:1001480013D8F8FFEDF582EF558224FF92B4D2B6AA
:0A015800C2B60BBB08DCD2B5C2B57D
:01016200227A
:10016300AA07AF05120136AF027480A80708800200
:10017300C313D8FCF4F5807F017E001201857580DE
:02018300FF2259
:10000F000200FBE493A3F8E493A34003F68001F20C
:10001F0008DFF48029E493A3F85407240CC8C333F2
:10002F00C4540F4420C8834004F456800146F6DFC1
:10003F00E4800B010204081020408090008FE47EC2
:10004F00019360BCA3FF543F30E509541FFEE493B6
:10005F00A360010ECF54C025E060A840B8E493A37D
:10006F00FAE493A3F8E493A3C8C582C8CAC583CAA8
:10007F00F0A3C8C582C8CAC583CADFE9DEE780BE60
:0100FA000005
:00000001FF
